{
  "_format": "hh-sol-artifact-1",
  "contractName": "SotaTiers",
  "sourceName": "contracts/SotaTiers.sol",
  "abi": [
    {
      "inputs": [
        {
          "internalType": "address",
          "name": "_sotaTokenAddress",
          "type": "address"
        }
      ],
      "stateMutability": "nonpayable",
      "type": "constructor"
    },
    {
      "anonymous": false,
      "inputs": [
        {
          "indexed": true,
          "internalType": "address",
          "name": "user",
          "type": "address"
        },
        {
          "indexed": false,
          "internalType": "uint256",
          "name": "amount",
          "type": "uint256"
        }
      ],
      "name": "EmergencyWithdrawn",
      "type": "event"
    },
    {
      "anonymous": false,
      "inputs": [
        {
          "indexed": true,
          "internalType": "address",
          "name": "previousOwner",
          "type": "address"
        },
        {
          "indexed": true,
          "internalType": "address",
          "name": "newOwner",
          "type": "address"
        }
      ],
      "name": "OwnershipTransferred",
      "type": "event"
    },
    {
      "anonymous": false,
      "inputs": [
        {
          "indexed": true,
          "internalType": "address",
          "name": "user",
          "type": "address"
        },
        {
          "indexed": false,
          "internalType": "uint256",
          "name": "amount",
          "type": "uint256"
        }
      ],
      "name": "Staked",
      "type": "event"
    },
    {
      "anonymous": false,
      "inputs": [
        {
          "indexed": true,
          "internalType": "address",
          "name": "user",
          "type": "address"
        },
        {
          "indexed": true,
          "internalType": "uint256",
          "name": "amount",
          "type": "uint256"
        },
        {
          "indexed": false,
          "internalType": "uint256",
          "name": "fee",
          "type": "uint256"
        }
      ],
      "name": "Withdrawn",
      "type": "event"
    },
    {
      "inputs": [],
      "name": "SOTA",
      "outputs": [
        {
          "internalType": "contract ERC20Burnable",
          "name": "",
          "type": "address"
        }
      ],
      "stateMutability": "view",
      "type": "function"
    },
    {
      "inputs": [
        {
          "internalType": "address",
          "name": "_userAddress",
          "type": "address"
        },
        {
          "internalType": "uint256",
          "name": "_amount",
          "type": "uint256"
        }
      ],
      "name": "calculateWithdrawFee",
      "outputs": [
        {
          "internalType": "uint256",
          "name": "",
          "type": "uint256"
        }
      ],
      "stateMutability": "view",
      "type": "function"
    },
    {
      "inputs": [],
      "name": "canEmergencyWithdraw",
      "outputs": [
        {
          "internalType": "bool",
          "name": "",
          "type": "bool"
        }
      ],
      "stateMutability": "view",
      "type": "function"
    },
    {
      "inputs": [
        {
          "internalType": "uint256",
          "name": "_amount",
          "type": "uint256"
        }
      ],
      "name": "deposit",
      "outputs": [],
      "stateMutability": "nonpayable",
      "type": "function"
    },
    {
      "inputs": [],
      "name": "emergencyWithdraw",
      "outputs": [],
      "stateMutability": "nonpayable",
      "type": "function"
    },
    {
      "inputs": [],
      "name": "getTiers",
      "outputs": [
        {
          "internalType": "uint256[10]",
          "name": "buf",
          "type": "uint256[10]"
        }
      ],
      "stateMutability": "view",
      "type": "function"
    },
    {
      "inputs": [
        {
          "internalType": "address",
          "name": "_userAddress",
          "type": "address"
        }
      ],
      "name": "getUserTier",
      "outputs": [
        {
          "internalType": "uint8",
          "name": "res",
          "type": "uint8"
        }
      ],
      "stateMutability": "view",
      "type": "function"
    },
    {
      "inputs": [],
      "name": "owner",
      "outputs": [
        {
          "internalType": "address",
          "name": "",
          "type": "address"
        }
      ],
      "stateMutability": "view",
      "type": "function"
    },
    {
      "inputs": [],
      "name": "renounceOwnership",
      "outputs": [],
      "stateMutability": "nonpayable",
      "type": "function"
    },
    {
      "inputs": [
        {
          "internalType": "address",
          "name": "newOwner",
          "type": "address"
        }
      ],
      "name": "transferOwnership",
      "outputs": [],
      "stateMutability": "nonpayable",
      "type": "function"
    },
    {
      "inputs": [
        {
          "internalType": "bool",
          "name": "_status",
          "type": "bool"
        }
      ],
      "name": "updateEmergencyWithdrawStatus",
      "outputs": [],
      "stateMutability": "nonpayable",
      "type": "function"
    },
    {
      "inputs": [
        {
          "internalType": "uint8",
          "name": "_tierId",
          "type": "uint8"
        },
        {
          "internalType": "uint256",
          "name": "_amount",
          "type": "uint256"
        }
      ],
      "name": "updateTier",
      "outputs": [],
      "stateMutability": "nonpayable",
      "type": "function"
    },
    {
      "inputs": [
        {
          "internalType": "uint256",
          "name": "_key",
          "type": "uint256"
        },
        {
          "internalType": "uint256",
          "name": "_percent",
          "type": "uint256"
        }
      ],
      "name": "updateWithdrawFee",
      "outputs": [],
      "stateMutability": "nonpayable",
      "type": "function"
    },
    {
      "inputs": [
        {
          "internalType": "address",
          "name": "",
          "type": "address"
        }
      ],
      "name": "userInfo",
      "outputs": [
        {
          "internalType": "uint256",
          "name": "staked",
          "type": "uint256"
        },
        {
          "internalType": "uint256",
          "name": "stakedTime",
          "type": "uint256"
        }
      ],
      "stateMutability": "view",
      "type": "function"
    },
    {
      "inputs": [
        {
          "internalType": "uint256",
          "name": "_amount",
          "type": "uint256"
        }
      ],
      "name": "withdraw",
      "outputs": [],
      "stateMutability": "nonpayable",
      "type": "function"
    },
    {
      "inputs": [
        {
          "internalType": "uint256",
          "name": "",
          "type": "uint256"
        }
      ],
      "name": "withdrawFeePercent",
      "outputs": [
        {
          "internalType": "uint256",
          "name": "",
          "type": "uint256"
        }
      ],
      "stateMutability": "view",
      "type": "function"
    }
  ],
  "bytecode": "0x60806040526002805460ff1916600417905534801561001d57600080fd5b506040516113f03803806113f08339818101604052602081101561004057600080fd5b505160006100556001600160e01b0361017b16565b600080546001600160a01b0319166001600160a01b0383169081178255604051929350917f8be0079c531659141344cd1fd0a4f28419497f9722a3daafe3b4186f6b6457e0908290a3506001808055600f80546001600160a01b0319166001600160a01b038416179055686c6b935b8bbd400000906004015569010f0cf064dd5920000060046002015569021e19e0c9bab240000060046003015569043c33c1937564800000600480015550600e8054600181810183556000838152601e7fbb7b4a454dc3493923482f07822329ed19e8244eff582cc204f8554c3620c3fd93840155835480830185556019908401558354808301855560149084015583548083018555600a90840155835480830185556005908401558354918201909355015561017f565b3390565b6112628061018e6000396000f3fe608060405234801561001057600080fd5b50600436106101005760003560e01c80638b36e64e11610097578063db2e21bc11610066578063db2e21bc14610293578063de1705701461029b578063e4d2620e146102dc578063f2fde38b1461031857610100565b80638b36e64e146102355780638da5cb5b14610252578063b6b55f251461025a578063cb9a8c7e1461027757610100565b806332ccb3a1116100d357806332ccb3a1146101c7578063468812eb146101e65780635435e4cd1461020a578063715018a61461022d57610100565b80631959a002146101055780631cc88afc1461014457806329a5cfd61461016c5780632e1a7d4d146101aa575b600080fd5b61012b6004803603602081101561011b57600080fd5b50356001600160a01b031661033e565b6040805192835260208301919091528051918290030190f35b61016a6004803603604081101561015a57600080fd5b5060ff8135169060200135610357565b005b6101986004803603604081101561018257600080fd5b506001600160a01b038135169060200135610461565b60408051918252519081900360200190f35b61016a600480360360208110156101c057600080fd5b5035610626565b61016a600480360360208110156101dd57600080fd5b50351515610854565b6101ee6108f7565b604080516001600160a01b039092168252519081900360200190f35b61016a6004803603604081101561022057600080fd5b5080359060200135610906565b61016a6109e3565b6101986004803603602081101561024b57600080fd5b5035610aa4565b6101ee610ac2565b61016a6004803603602081101561027057600080fd5b5035610ad2565b61027f610c2e565b604080519115158252519081900360200190f35b61016a610c3e565b6102a3610dbf565b604051808261014080838360005b838110156102c95781810151838201526020016102b1565b5050505090500191505060405180910390f35b610302600480360360208110156102f257600080fd5b50356001600160a01b0316610e27565b6040805160ff9092168252519081900360200190f35b61016a6004803603602081101561032e57600080fd5b50356001600160a01b0316610e9a565b6003602052600090815260409020805460019091015482565b61035f610fb1565b6000546001600160a01b039081169116146103c1576040805162461bcd60e51b815260206004820181905260248201527f4f776e61626c653a2063616c6c6572206973206e6f7420746865206f776e6572604482015290519081900360640190fd5b60008260ff161180156103d85750600a8260ff1611155b610429576040805162461bcd60e51b815260206004820152600f60248201527f696e76616c6964205f7469657249640000000000000000000000000000000000604482015290519081900360640190fd5b8060048360ff16600a811061043a57fe5b015560025460ff908116908316111561045d576002805460ff191660ff84161790555b5050565b6001600160a01b038216600090815260036020526040812080548311156104cf576040805162461bcd60e51b815260206004820152601d60248201527f6e6f7420656e6f75676820616d6f756e7420746f207769746864726177000000604482015290519081900360640190fd5b60018101546104e790620d2f0063ffffffff610fb516565b4210156105325761052a606461051e600e60008154811061050457fe5b90600052602060002001548661101690919063ffffffff16565b9063ffffffff61106f16565b915050610620565b600181015461054a90621a5e0063ffffffff610fb516565b4210156105675761052a606461051e600e60018154811061050457fe5b600181015461057f9062278d0063ffffffff610fb516565b42101561059c5761052a606461051e600e60028154811061050457fe5b60018101546105b490624f1a0063ffffffff610fb516565b4210156105d15761052a606461051e600e60038154811061050457fe5b60018101546105e9906276a70063ffffffff610fb516565b4210156106065761052a606461051e600e60048154811061050457fe5b61061c606461051e600e60058154811061050457fe5b9150505b92915050565b6002600154141561067e576040805162461bcd60e51b815260206004820152601f60248201527f5265656e7472616e637947756172643a207265656e7472616e742063616c6c00604482015290519081900360640190fd5b600260015533600090815260036020526040902080548211156106e8576040805162461bcd60e51b815260206004820152601d60248201527f6e6f7420656e6f75676820616d6f756e7420746f207769746864726177000000604482015290519081900360640190fd5b60006106f43384610461565b8254909150610709908463ffffffff6110b116565b8255801561077757600f5460408051630852cd8d60e31b81526004810184905290516001600160a01b03909216916342966c689160248082019260009290919082900301818387803b15801561075e57600080fd5b505af1158015610772573d6000803e3d6000fd5b505050505b600f546001600160a01b031663a9059cbb33610799868563ffffffff6110b116565b6040518363ffffffff1660e01b815260040180836001600160a01b03166001600160a01b0316815260200182815260200192505050602060405180830381600087803b1580156107e857600080fd5b505af11580156107fc573d6000803e3d6000fd5b505050506040513d602081101561081257600080fd5b5050604080518281529051849133917f92ccf450a286a957af52509bc1c9939d1a6a481783e142e41e2499f0bb66ebc69181900360200190a350506001805550565b61085c610fb1565b6000546001600160a01b039081169116146108be576040805162461bcd60e51b815260206004820181905260248201527f4f776e61626c653a2063616c6c6572206973206e6f7420746865206f776e6572604482015290519081900360640190fd5b600f8054911515600160a01b027fffffffffffffffffffffff00ffffffffffffffffffffffffffffffffffffffff909216919091179055565b600f546001600160a01b031681565b61090e610fb1565b6000546001600160a01b03908116911614610970576040805162461bcd60e51b815260206004820181905260248201527f4f776e61626c653a2063616c6c6572206973206e6f7420746865206f776e6572604482015290519081900360640190fd5b606481106109c5576040805162461bcd60e51b815260206004820152601060248201527f746f6f20686967682070657263656e7400000000000000000000000000000000604482015290519081900360640190fd5b80600e83815481106109d357fe5b6000918252602090912001555050565b6109eb610fb1565b6000546001600160a01b03908116911614610a4d576040805162461bcd60e51b815260206004820181905260248201527f4f776e61626c653a2063616c6c6572206973206e6f7420746865206f776e6572604482015290519081900360640190fd5b600080546040516001600160a01b03909116907f8be0079c531659141344cd1fd0a4f28419497f9722a3daafe3b4186f6b6457e0908390a36000805473ffffffffffffffffffffffffffffffffffffffff19169055565b600e8181548110610ab157fe5b600091825260209091200154905081565b6000546001600160a01b03165b90565b60026001541415610b2a576040805162461bcd60e51b815260206004820152601f60248201527f5265656e7472616e637947756172643a207265656e7472616e742063616c6c00604482015290519081900360640190fd5b6002600155600f54604080516323b872dd60e01b81523360048201523060248201526044810184905290516001600160a01b03909216916323b872dd916064808201926020929091908290030181600087803b158015610b8957600080fd5b505af1158015610b9d573d6000803e3d6000fd5b505050506040513d6020811015610bb357600080fd5b505033600090815260036020526040902054610bd5908263ffffffff610fb516565b33600081815260036020908152604091829020938455426001909401939093558051848152905191927f9e71bc8eea02a63969f509818f2dafb9254532904319f9dbda79b67bd34a5f3d92918290030190a25060018055565b600f54600160a01b900460ff1681565b600f54600160a01b900460ff16610c9c576040805162461bcd60e51b815260206004820152601160248201527f66756e6374696f6e2064697361626c6564000000000000000000000000000000604482015290519081900360640190fd5b3360009081526003602052604090208054610cfe576040805162461bcd60e51b815260206004820152601360248201527f6e6f7468696e6720746f20776974686472617700000000000000000000000000604482015290519081900360640190fd5b80546000808355600f546040805163a9059cbb60e01b81523360048201526024810185905290516001600160a01b039092169263a9059cbb926044808401936020939083900390910190829087803b158015610d5957600080fd5b505af1158015610d6d573d6000803e3d6000fd5b505050506040513d6020811015610d8357600080fd5b505060408051828152905133917f2e39961a70a10f4d46383948095ac2752b3ee642a7c76aa827410aaff08c2e51919081900360200190a25050565b610dc76111ef565b60015b600a8160ff161015610e235760048160ff16600a8110610de657fe5b0154610df25750610acf565b60048160ff16600a8110610e0257fe5b0154826001830360ff16600a8110610e1657fe5b6020020152600101610dca565b5090565b600060015b600a8160ff1611610e935760048160ff16600a8110610e4757fe5b01541580610e7d575060048160ff16600a8110610e6057fe5b01546001600160a01b038416600090815260036020526040902054105b15610e885750610e95565b905060018101610e2c565b505b919050565b610ea2610fb1565b6000546001600160a01b03908116911614610f04576040805162461bcd60e51b815260206004820181905260248201527f4f776e61626c653a2063616c6c6572206973206e6f7420746865206f776e6572604482015290519081900360640190fd5b6001600160a01b038116610f495760405162461bcd60e51b815260040180806020018281038252602681526020018061120f6026913960400191505060405180910390fd5b600080546040516001600160a01b03808516939216917f8be0079c531659141344cd1fd0a4f28419497f9722a3daafe3b4186f6b6457e091a36000805473ffffffffffffffffffffffffffffffffffffffff19166001600160a01b0392909216919091179055565b3390565b60008282018381101561100f576040805162461bcd60e51b815260206004820152601b60248201527f536166654d6174683a206164646974696f6e206f766572666c6f770000000000604482015290519081900360640190fd5b9392505050565b60008261102557506000610620565b8282028284828161103257fe5b041461100f5760405162461bcd60e51b81526004018080602001828103825260218152602001806112356021913960400191505060405180910390fd5b600061100f83836040518060400160405280601a81526020017f536166654d6174683a206469766973696f6e206279207a65726f0000000000008152506110f3565b600061100f83836040518060400160405280601e81526020017f536166654d6174683a207375627472616374696f6e206f766572666c6f770000815250611195565b6000818361117f5760405162461bcd60e51b81526004018080602001828103825283818151815260200191508051906020019080838360005b8381101561114457818101518382015260200161112c565b50505050905090810190601f1680156111715780820380516001836020036101000a031916815260200191505b509250505060405180910390fd5b50600083858161118b57fe5b0495945050505050565b600081848411156111e75760405162461bcd60e51b815260206004820181815283516024840152835190928392604490910191908501908083836000831561114457818101518382015260200161112c565b505050900390565b604051806101400160405280600a90602082028038833950919291505056fe4f776e61626c653a206e6577206f776e657220697320746865207a65726f2061646472657373536166654d6174683a206d756c7469706c69636174696f6e206f766572666c6f77a164736f6c6343000602000a",
  "linkReferences": {},
  "deployedLinkReferences": {}
}